{
  "contractName": "Crowdfunding",
  "abi": [
    {
      "inputs": [],
      "stateMutability": "nonpayable",
      "type": "constructor"
    },
    {
      "anonymous": false,
      "inputs": [
        {
          "indexed": false,
          "internalType": "uint256",
          "name": "campaignId",
          "type": "uint256"
        },
        {
          "indexed": false,
          "internalType": "address",
          "name": "owner",
          "type": "address"
        },
        {
          "indexed": false,
          "internalType": "string",
          "name": "name",
          "type": "string"
        },
        {
          "indexed": false,
          "internalType": "uint256",
          "name": "goal",
          "type": "uint256"
        },
        {
          "indexed": false,
          "internalType": "uint256",
          "name": "deadline",
          "type": "uint256"
        }
      ],
      "name": "CampaignCreated",
      "type": "event"
    },
    {
      "anonymous": false,
      "inputs": [
        {
          "indexed": false,
          "internalType": "uint256",
          "name": "campaignId",
          "type": "uint256"
        }
      ],
      "name": "CampaignFailed",
      "type": "event"
    },
    {
      "anonymous": false,
      "inputs": [
        {
          "indexed": false,
          "internalType": "bool",
          "name": "isPaused",
          "type": "bool"
        }
      ],
      "name": "CampaignPaused",
      "type": "event"
    },
    {
      "anonymous": false,
      "inputs": [
        {
          "indexed": false,
          "internalType": "uint256",
          "name": "campaignId",
          "type": "uint256"
        }
      ],
      "name": "CampaignSuccessful",
      "type": "event"
    },
    {
      "anonymous": false,
      "inputs": [
        {
          "indexed": false,
          "internalType": "uint256",
          "name": "campaignId",
          "type": "uint256"
        },
        {
          "indexed": false,
          "internalType": "address",
          "name": "contributor",
          "type": "address"
        },
        {
          "indexed": false,
          "internalType": "uint256",
          "name": "amount",
          "type": "uint256"
        }
      ],
      "name": "ContributionReceived",
      "type": "event"
    },
    {
      "anonymous": false,
      "inputs": [
        {
          "indexed": false,
          "internalType": "uint256",
          "name": "campaignId",
          "type": "uint256"
        },
        {
          "indexed": false,
          "internalType": "uint256",
          "name": "amount",
          "type": "uint256"
        }
      ],
      "name": "FundsWithdrawn",
      "type": "event"
    },
    {
      "anonymous": false,
      "inputs": [
        {
          "indexed": false,
          "internalType": "uint256",
          "name": "campaignId",
          "type": "uint256"
        },
        {
          "indexed": false,
          "internalType": "address",
          "name": "backer",
          "type": "address"
        },
        {
          "indexed": false,
          "internalType": "uint256",
          "name": "amount",
          "type": "uint256"
        }
      ],
      "name": "RefundIssued",
      "type": "event"
    },
    {
      "inputs": [],
      "name": "admin",
      "outputs": [
        {
          "internalType": "address",
          "name": "",
          "type": "address"
        }
      ],
      "stateMutability": "view",
      "type": "function",
      "constant": true
    },
    {
      "inputs": [
        {
          "internalType": "uint256",
          "name": "",
          "type": "uint256"
        },
        {
          "internalType": "address",
          "name": "",
          "type": "address"
        }
      ],
      "name": "campaignBackers",
      "outputs": [
        {
          "internalType": "uint256",
          "name": "amountContributed",
          "type": "uint256"
        }
      ],
      "stateMutability": "view",
      "type": "function",
      "constant": true
    },
    {
      "inputs": [],
      "name": "campaignCount",
      "outputs": [
        {
          "internalType": "uint256",
          "name": "",
          "type": "uint256"
        }
      ],
      "stateMutability": "view",
      "type": "function",
      "constant": true
    },
    {
      "inputs": [
        {
          "internalType": "uint256",
          "name": "",
          "type": "uint256"
        }
      ],
      "name": "campaigns",
      "outputs": [
        {
          "internalType": "string",
          "name": "name",
          "type": "string"
        },
        {
          "internalType": "string",
          "name": "description",
          "type": "string"
        },
        {
          "internalType": "uint256",
          "name": "goal",
          "type": "uint256"
        },
        {
          "internalType": "uint256",
          "name": "deadline",
          "type": "uint256"
        },
        {
          "internalType": "address payable",
          "name": "owner",
          "type": "address"
        },
        {
          "internalType": "enum Crowdfunding.CampaignState",
          "name": "state",
          "type": "uint8"
        },
        {
          "internalType": "uint256",
          "name": "balance",
          "type": "uint256"
        }
      ],
      "stateMutability": "view",
      "type": "function",
      "constant": true
    },
    {
      "inputs": [],
      "name": "paused",
      "outputs": [
        {
          "internalType": "bool",
          "name": "",
          "type": "bool"
        }
      ],
      "stateMutability": "view",
      "type": "function",
      "constant": true
    },
    {
      "inputs": [
        {
          "internalType": "address",
          "name": "",
          "type": "address"
        },
        {
          "internalType": "uint256",
          "name": "",
          "type": "uint256"
        }
      ],
      "name": "userCampaigns",
      "outputs": [
        {
          "internalType": "uint256",
          "name": "",
          "type": "uint256"
        }
      ],
      "stateMutability": "view",
      "type": "function",
      "constant": true
    },
    {
      "inputs": [
        {
          "internalType": "string",
          "name": "_name",
          "type": "string"
        },
        {
          "internalType": "string",
          "name": "_description",
          "type": "string"
        },
        {
          "internalType": "uint256",
          "name": "_goal",
          "type": "uint256"
        },
        {
          "internalType": "uint256",
          "name": "_duration",
          "type": "uint256"
        }
      ],
      "name": "createCampaign",
      "outputs": [],
      "stateMutability": "nonpayable",
      "type": "function"
    },
    {
      "inputs": [
        {
          "internalType": "uint256",
          "name": "_campaignId",
          "type": "uint256"
        }
      ],
      "name": "contribute",
      "outputs": [],
      "stateMutability": "payable",
      "type": "function",
      "payable": true
    },
    {
      "inputs": [
        {
          "internalType": "uint256",
          "name": "_campaignId",
          "type": "uint256"
        }
      ],
      "name": "withdrawFunds",
      "outputs": [],
      "stateMutability": "nonpayable",
      "type": "function"
    },
    {
      "inputs": [
        {
          "internalType": "uint256",
          "name": "_campaignId",
          "type": "uint256"
        }
      ],
      "name": "refundBackers",
      "outputs": [],
      "stateMutability": "nonpayable",
      "type": "function"
    },
    {
      "inputs": [
        {
          "internalType": "uint256",
          "name": "_campaignId",
          "type": "uint256"
        }
      ],
      "name": "autoRefund",
      "outputs": [],
      "stateMutability": "nonpayable",
      "type": "function"
    },
    {
      "inputs": [
        {
          "internalType": "uint256",
          "name": "_campaignId",
          "type": "uint256"
        }
      ],
      "name": "getContributors",
      "outputs": [
        {
          "internalType": "address[]",
          "name": "",
          "type": "address[]"
        },
        {
          "internalType": "uint256[]",
          "name": "",
          "type": "uint256[]"
        }
      ],
      "stateMutability": "view",
      "type": "function",
      "constant": true
    },
    {
      "inputs": [],
      "name": "togglePause",
      "outputs": [],
      "stateMutability": "nonpayable",
      "type": "function"
    },
    {
      "inputs": [],
      "name": "getMyCampaigns",
      "outputs": [
        {
          "internalType": "uint256[]",
          "name": "",
          "type": "uint256[]"
        }
      ],
      "stateMutability": "view",
      "type": "function",
      "constant": true
    }
  ],
  "bytecode": "0x608060405234801561001057600080fd5b50336000806101000a81548173ffffffffffffffffffffffffffffffffffffffff021916908373ffffffffffffffffffffffffffffffffffffffff1602179055506000600260006101000a81548160ff021916908315150217905550612e048061007b6000396000f3fe6080604052600436106100dd5760003560e01c80637274e30d1161007f578063c1cbbca711610059578063c1cbbca7146102c5578063c4ae3168146102e1578063d1bd6a18146102f8578063f851a44014610335576100dd565b80637274e30d1461024657806382bea0ca14610271578063a318f2691461029c576100dd565b806319ac74bd116100bb57806319ac74bd146101775780633c1ab00f146101b4578063516e8e52146101f25780635c975abb1461021b576100dd565b80630993cdbe146100e2578063141961bc1461010b578063155dd5ee1461014e575b600080fd5b3480156100ee57600080fd5b5061010960048036038101906101049190611af3565b610360565b005b34801561011757600080fd5b50610132600480360381019061012d9190611af3565b610885565b6040516101459796959493929190611c77565b60405180910390f35b34801561015a57600080fd5b5061017560048036038101906101709190611af3565b610a04565b005b34801561018357600080fd5b5061019e60048036038101906101999190611d32565b610ca2565b6040516101ab9190611d72565b60405180910390f35b3480156101c057600080fd5b506101db60048036038101906101d69190611af3565b610cd3565b6040516101e9929190611f09565b60405180910390f35b3480156101fe57600080fd5b5061021960048036038101906102149190611af3565b610ece565b005b34801561022757600080fd5b5061023061122c565b60405161023d9190611f5b565b60405180910390f35b34801561025257600080fd5b5061025b61123f565b6040516102689190611d72565b60405180910390f35b34801561027d57600080fd5b50610286611245565b6040516102939190611f76565b60405180910390f35b3480156102a857600080fd5b506102c360048036038101906102be91906120cd565b6112da565b005b6102df60048036038101906102da9190611af3565b6115bd565b005b3480156102ed57600080fd5b506102f661195a565b005b34801561030457600080fd5b5061031f600480360381019061031a919061216c565b611a5a565b60405161032c9190611d72565b60405180910390f35b34801561034157600080fd5b5061034a611a85565b60405161035791906121bb565b60405180910390f35b6000600360008381526020019081526020016000209050806003015442116103bd576040517f08c379a00000000000000000000000000000000000000000000000000000000081526004016103b490612222565b60405180910390fd5b600160028111156103d1576103d0611c00565b5b8160040160149054906101000a900460ff1660028111156103f5576103f4611c00565b5b14610435576040517f08c379a000000000000000000000000000000000000000000000000000000000815260040161042c9061228e565b60405180910390fd5b600081600501541161047c576040517f08c379a0000000000000000000000000000000000000000000000000000000008152600401610473906122fa565b60405180910390fd5b60028160040160146101000a81548160ff021916908360028111156104a4576104a3611c00565b5b02179055506000805b60056000858152602001908152602001600020805490508110156105a45760006005600086815260200190815260200160002082815481106104f2576104f161231a565b5b9060005260206000200160009054906101000a900473ffffffffffffffffffffffffffffffffffffffff16905060006004600087815260200190815260200160002060008373ffffffffffffffffffffffffffffffffffffffff1673ffffffffffffffffffffffffffffffffffffffff168152602001908152602001600020600001549050600081111561058f57808461058c9190612378565b93505b5050808061059c906123ac565b9150506104ad565b5081600501548111156105ec576040517f08c379a00000000000000000000000000000000000000000000000000000000081526004016105e390612440565b60405180910390fd5b60005b60056000858152602001908152602001600020805490508110156108485760006005600086815260200190815260200160002082815481106106345761063361231a565b5b9060005260206000200160009054906101000a900473ffffffffffffffffffffffffffffffffffffffff16905060006004600087815260200190815260200160002060008373ffffffffffffffffffffffffffffffffffffffff1673ffffffffffffffffffffffffffffffffffffffff168152602001908152602001600020600001549050600081111561083357604051806020016040528060008152506004600088815260200190815260200160002060008473ffffffffffffffffffffffffffffffffffffffff1673ffffffffffffffffffffffffffffffffffffffff16815260200190815260200160002060008201518160000155905050808560050160008282546107439190612460565b9250508190555060008273ffffffffffffffffffffffffffffffffffffffff1682604051610770906124c5565b60006040518083038185875af1925050503d80600081146107ad576040519150601f19603f3d011682016040523d82523d6000602084013e6107b2565b606091505b50509050806107f6576040517f08c379a00000000000000000000000000000000000000000000000000000000081526004016107ed90612526565b60405180910390fd5b7f7a482fdeb6bc9a1376f597068a214a7a39472bb2eff1b8cad21ba04f49ddca1b87848460405161082993929190612546565b60405180910390a1505b50508080610840906123ac565b9150506105ef565b507f7b1418b19a03b176f641639ee79855da661fa88a08377ecd32ad6d38152b9536836040516108789190611d72565b60405180910390a1505050565b60036020528060005260406000206000915090508060000180546108a8906125ac565b80601f01602080910402602001604051908101604052809291908181526020018280546108d4906125ac565b80156109215780601f106108f657610100808354040283529160200191610921565b820191906000526020600020905b81548152906001019060200180831161090457829003601f168201915b505050505090806001018054610936906125ac565b80601f0160208091040260200160405190810160405280929190818152602001828054610962906125ac565b80156109af5780601f10610984576101008083540402835291602001916109af565b820191906000526020600020905b81548152906001019060200180831161099257829003601f168201915b5050505050908060020154908060030154908060040160009054906101000a900473ffffffffffffffffffffffffffffffffffffffff16908060040160149054906101000a900460ff16908060050154905087565b806003600082815260200190815260200160002060040160009054906101000a900473ffffffffffffffffffffffffffffffffffffffff1673ffffffffffffffffffffffffffffffffffffffff163373ffffffffffffffffffffffffffffffffffffffff1614610aa9576040517f08c379a0000000000000000000000000000000000000000000000000000000008152600401610aa090612629565b60405180910390fd5b600060036000848152602001908152602001600020905060016002811115610ad457610ad3611c00565b5b8160040160149054906101000a900460ff166002811115610af857610af7611c00565b5b14610b38576040517f08c379a0000000000000000000000000000000000000000000000000000000008152600401610b2f9061228e565b60405180910390fd5b6000816005015411610b7f576040517f08c379a0000000000000000000000000000000000000000000000000000000008152600401610b7690612695565b60405180910390fd5b6000816005015490506000826005018190555060008260040160009054906101000a900473ffffffffffffffffffffffffffffffffffffffff1673ffffffffffffffffffffffffffffffffffffffff1682604051610bdc906124c5565b60006040518083038185875af1925050503d8060008114610c19576040519150601f19603f3d011682016040523d82523d6000602084013e610c1e565b606091505b5050905080610c62576040517f08c379a0000000000000000000000000000000000000000000000000000000008152600401610c5990612526565b60405180910390fd5b7fd66662c0ded9e58fd31d5e44944bcfd07ffc15e6927ecc1382e7941cb7bd24c48583604051610c939291906126b5565b60405180910390a15050505050565b60066020528160005260406000208181548110610cbe57600080fd5b90600052602060002001600091509150505481565b60608060006005600085815260200190815260200160002080549050905060008167ffffffffffffffff811115610d0d57610d0c611fa2565b5b604051908082528060200260200182016040528015610d3b5781602001602082028036833780820191505090505b50905060008267ffffffffffffffff811115610d5a57610d59611fa2565b5b604051908082528060200260200182016040528015610d885781602001602082028036833780820191505090505b50905060005b83811015610ebf576000600560008981526020019081526020016000208281548110610dbd57610dbc61231a565b5b9060005260206000200160009054906101000a900473ffffffffffffffffffffffffffffffffffffffff16905080848381518110610dfe57610dfd61231a565b5b602002602001019073ffffffffffffffffffffffffffffffffffffffff16908173ffffffffffffffffffffffffffffffffffffffff16815250506004600089815260200190815260200160002060008273ffffffffffffffffffffffffffffffffffffffff1673ffffffffffffffffffffffffffffffffffffffff16815260200190815260200160002060000154838381518110610e9f57610e9e61231a565b5b602002602001018181525050508080610eb7906123ac565b915050610d8e565b50818194509450505050915091565b6000600360008381526020019081526020016000209050600280811115610ef857610ef7611c00565b5b8160040160149054906101000a900460ff166002811115610f1c57610f1b611c00565b5b14610f5c576040517f08c379a0000000000000000000000000000000000000000000000000000000008152600401610f539061272a565b60405180910390fd5b80600301544211610fa2576040517f08c379a0000000000000000000000000000000000000000000000000000000008152600401610f9990612222565b60405180910390fd5b6000816005015411610fe9576040517f08c379a0000000000000000000000000000000000000000000000000000000008152600401610fe0906122fa565b60405180910390fd5b60006004600084815260200190815260200160002060003373ffffffffffffffffffffffffffffffffffffffff1673ffffffffffffffffffffffffffffffffffffffff16815260200190815260200160002060000154905060008111611084576040517f08c379a000000000000000000000000000000000000000000000000000000000815260040161107b906127bc565b60405180910390fd5b81600501548111156110cb576040517f08c379a00000000000000000000000000000000000000000000000000000000081526004016110c290612440565b60405180910390fd5b60006004600085815260200190815260200160002060003373ffffffffffffffffffffffffffffffffffffffff1673ffffffffffffffffffffffffffffffffffffffff16815260200190815260200160002060000181905550808260050160008282546111389190612460565b9250508190555060003373ffffffffffffffffffffffffffffffffffffffff1682604051611165906124c5565b60006040518083038185875af1925050503d80600081146111a2576040519150601f19603f3d011682016040523d82523d6000602084013e6111a7565b606091505b50509050806111eb576040517f08c379a00000000000000000000000000000000000000000000000000000000081526004016111e290612526565b60405180910390fd5b7f7a482fdeb6bc9a1376f597068a214a7a39472bb2eff1b8cad21ba04f49ddca1b84338460405161121e93929190612546565b60405180910390a150505050565b600260009054906101000a900460ff1681565b60015481565b6060600660003373ffffffffffffffffffffffffffffffffffffffff1673ffffffffffffffffffffffffffffffffffffffff1681526020019081526020016000208054806020026020016040519081016040528092919081815260200182805480156112d057602002820191906000526020600020905b8154815260200190600101908083116112bc575b5050505050905090565b600260009054906101000a900460ff161561132a576040517f08c379a000000000000000000000000000000000000000000000000000000000815260040161132190612828565b60405180910390fd5b6000821161136d576040517f08c379a000000000000000000000000000000000000000000000000000000000815260040161136490612894565b60405180910390fd5b600081116113b0576040517f08c379a00000000000000000000000000000000000000000000000000000000081526004016113a790612900565b60405180910390fd5b6000600160008154809291906113c5906123ac565b91905055905060006019426113da9190612378565b90506040518060e001604052808781526020018681526020018581526020018281526020013373ffffffffffffffffffffffffffffffffffffffff1681526020016000600281111561142f5761142e611c00565b5b815260200160008152506003600084815260200190815260200160002060008201518160000190816114619190612acc565b5060208201518160010190816114779190612acc565b50604082015181600201556060820151816003015560808201518160040160006101000a81548173ffffffffffffffffffffffffffffffffffffffff021916908373ffffffffffffffffffffffffffffffffffffffff16021790555060a08201518160040160146101000a81548160ff021916908360028111156114fe576114fd611c00565b5b021790555060c08201518160050155905050600660003373ffffffffffffffffffffffffffffffffffffffff1673ffffffffffffffffffffffffffffffffffffffff1681526020019081526020016000208290806001815401808255809150506001900390600052602060002001600090919091909150557fdc26653af5b99b2da33e2ad69ee6600d9aeccc82b034501db4338309615ca23882338887856040516115ad959493929190612b9e565b60405180910390a1505050505050565b80600060028111156115d2576115d1611c00565b5b6003600083815260200190815260200160002060040160149054906101000a900460ff16600281111561160857611607611c00565b5b14611648576040517f08c379a000000000000000000000000000000000000000000000000000000000815260040161163f90612c44565b60405180910390fd5b600360008281526020019081526020016000206003015442106116a0576040517f08c379a000000000000000000000000000000000000000000000000000000000815260040161169790612cb0565b60405180910390fd5b600260009054906101000a900460ff16156116f0576040517f08c379a00000000000000000000000000000000000000000000000000000000081526004016116e790612828565b60405180910390fd5b662386f26fc1000034101561173a576040517f08c379a000000000000000000000000000000000000000000000000000000000815260040161173190612d1c565b60405180910390fd5b600060036000848152602001908152602001600020905060006004600085815260200190815260200160002060003373ffffffffffffffffffffffffffffffffffffffff1673ffffffffffffffffffffffffffffffffffffffff16815260200190815260200160002060000154036118215760056000848152602001908152602001600020339080600181540180825580915050600190039060005260206000200160009091909190916101000a81548173ffffffffffffffffffffffffffffffffffffffff021916908373ffffffffffffffffffffffffffffffffffffffff1602179055505b346004600085815260200190815260200160002060003373ffffffffffffffffffffffffffffffffffffffff1673ffffffffffffffffffffffffffffffffffffffff16815260200190815260200160002060000160008282546118849190612378565b925050819055503481600501600082825461189f9190612378565b92505081905550806002015481600501541061191a5760018160040160146101000a81548160ff021916908360028111156118dd576118dc611c00565b5b02179055507ff2460a88147f5180b9df3609a3c66dda39614029da9fdf0b90564b7154374d2f836040516119119190611d72565b60405180910390a15b7f865c884d49c8cecaef108efb20f7d282f26c0f9b0d24dd48e5592d4e02ec658d83333460405161194d93929190612546565b60405180910390a1505050565b60008054906101000a900473ffffffffffffffffffffffffffffffffffffffff1673ffffffffffffffffffffffffffffffffffffffff163373ffffffffffffffffffffffffffffffffffffffff16146119e8576040517f08c379a00000000000000000000000000000000000000000000000000000000081526004016119df90612dae565b60405180910390fd5b600260009054906101000a900460ff1615600260006101000a81548160ff0219169083151502179055507fa66983f1e0c06bda0301fafb95e0a6dd52718dee3977fafebb9baf5c096dfbfa600260009054906101000a900460ff16604051611a509190611f5b565b60405180910390a1565b6004602052816000526040600020602052806000526040600020600091509150508060000154905081565b60008054906101000a900473ffffffffffffffffffffffffffffffffffffffff1681565b6000604051905090565b600080fd5b600080fd5b6000819050919050565b611ad081611abd565b8114611adb57600080fd5b50565b600081359050611aed81611ac7565b92915050565b600060208284031215611b0957611b08611ab3565b5b6000611b1784828501611ade565b91505092915050565b600081519050919050565b600082825260208201905092915050565b60005b83811015611b5a578082015181840152602081019050611b3f565b60008484015250505050565b6000601f19601f8301169050919050565b6000611b8282611b20565b611b8c8185611b2b565b9350611b9c818560208601611b3c565b611ba581611b66565b840191505092915050565b611bb981611abd565b82525050565b600073ffffffffffffffffffffffffffffffffffffffff82169050919050565b6000611bea82611bbf565b9050919050565b611bfa81611bdf565b82525050565b7f4e487b7100000000000000000000000000000000000000000000000000000000600052602160045260246000fd5b60038110611c4057611c3f611c00565b5b50565b6000819050611c5182611c2f565b919050565b6000611c6182611c43565b9050919050565b611c7181611c56565b82525050565b600060e0820190508181036000830152611c91818a611b77565b90508181036020830152611ca58189611b77565b9050611cb46040830188611bb0565b611cc16060830187611bb0565b611cce6080830186611bf1565b611cdb60a0830185611c68565b611ce860c0830184611bb0565b98975050505050505050565b6000611cff82611bbf565b9050919050565b611d0f81611cf4565b8114611d1a57600080fd5b50565b600081359050611d2c81611d06565b92915050565b60008060408385031215611d4957611d48611ab3565b5b6000611d5785828601611d1d565b9250506020611d6885828601611ade565b9150509250929050565b6000602082019050611d876000830184611bb0565b92915050565b600081519050919050565b600082825260208201905092915050565b6000819050602082019050919050565b611dc281611cf4565b82525050565b6000611dd48383611db9565b60208301905092915050565b6000602082019050919050565b6000611df882611d8d565b611e028185611d98565b9350611e0d83611da9565b8060005b83811015611e3e578151611e258882611dc8565b9750611e3083611de0565b925050600181019050611e11565b5085935050505092915050565b600081519050919050565b600082825260208201905092915050565b6000819050602082019050919050565b611e8081611abd565b82525050565b6000611e928383611e77565b60208301905092915050565b6000602082019050919050565b6000611eb682611e4b565b611ec08185611e56565b9350611ecb83611e67565b8060005b83811015611efc578151611ee38882611e86565b9750611eee83611e9e565b925050600181019050611ecf565b5085935050505092915050565b60006040820190508181036000830152611f238185611ded565b90508181036020830152611f378184611eab565b90509392505050565b60008115159050919050565b611f5581611f40565b82525050565b6000602082019050611f706000830184611f4c565b92915050565b60006020820190508181036000830152611f908184611eab565b905092915050565b600080fd5b600080fd5b7f4e487b7100000000000000000000000000000000000000000000000000000000600052604160045260246000fd5b611fda82611b66565b810181811067ffffffffffffffff82111715611ff957611ff8611fa2565b5b80604052505050565b600061200c611aa9565b90506120188282611fd1565b919050565b600067ffffffffffffffff82111561203857612037611fa2565b5b61204182611b66565b9050602081019050919050565b82818337600083830152505050565b600061207061206b8461201d565b612002565b90508281526020810184848401111561208c5761208b611f9d565b5b61209784828561204e565b509392505050565b600082601f8301126120b4576120b3611f98565b5b81356120c484826020860161205d565b91505092915050565b600080600080608085870312156120e7576120e6611ab3565b5b600085013567ffffffffffffffff81111561210557612104611ab8565b5b6121118782880161209f565b945050602085013567ffffffffffffffff81111561213257612131611ab8565b5b61213e8782880161209f565b935050604061214f87828801611ade565b925050606061216087828801611ade565b91505092959194509250565b6000806040838503121561218357612182611ab3565b5b600061219185828601611ade565b92505060206121a285828601611d1d565b9150509250929050565b6121b581611cf4565b82525050565b60006020820190506121d060008301846121ac565b92915050565b7f43616d706169676e20646561646c696e65206e6f742070617373656400000000600082015250565b600061220c601c83611b2b565b9150612217826121d6565b602082019050919050565b6000602082019050818103600083015261223b816121ff565b9050919050565b7f43616d706169676e206973206e6f74207375636365737366756c000000000000600082015250565b6000612278601a83611b2b565b915061228382612242565b602082019050919050565b600060208201905081810360008301526122a78161226b565b9050919050565b7f4e6f2066756e647320617661696c61626c6520666f7220726566756e64000000600082015250565b60006122e4601d83611b2b565b91506122ef826122ae565b602082019050919050565b60006020820190508181036000830152612313816122d7565b9050919050565b7f4e487b7100000000000000000000000000000000000000000000000000000000600052603260045260246000fd5b7f4e487b7100000000000000000000000000000000000000000000000000000000600052601160045260246000fd5b600061238382611abd565b915061238e83611abd565b92508282019050808211156123a6576123a5612349565b5b92915050565b60006123b782611abd565b91507fffffffffffffffffffffffffffffffffffffffffffffffffffffffffffffffff82036123e9576123e8612349565b5b600182019050919050565b7f496e73756666696369656e7420636f6e74726163742062616c616e6365000000600082015250565b600061242a601d83611b2b565b9150612435826123f4565b602082019050919050565b600060208201905081810360008301526124598161241d565b9050919050565b600061246b82611abd565b915061247683611abd565b925082820390508181111561248e5761248d612349565b5b92915050565b600081905092915050565b50565b60006124af600083612494565b91506124ba8261249f565b600082019050919050565b60006124d0826124a2565b9150819050919050565b7f5472616e73666572206661696c65640000000000000000000000000000000000600082015250565b6000612510600f83611b2b565b915061251b826124da565b602082019050919050565b6000602082019050818103600083015261253f81612503565b9050919050565b600060608201905061255b6000830186611bb0565b61256860208301856121ac565b6125756040830184611bb0565b949350505050565b7f4e487b7100000000000000000000000000000000000000000000000000000000600052602260045260246000fd5b600060028204905060018216806125c457607f821691505b6020821081036125d7576125d661257d565b5b50919050565b7f4e6f74207468652063616d706169676e206f776e657200000000000000000000600082015250565b6000612613601683611b2b565b915061261e826125dd565b602082019050919050565b6000602082019050818103600083015261264281612606565b9050919050565b7f4e6f2066756e647320746f207769746864726177000000000000000000000000600082015250565b600061267f601483611b2b565b915061268a82612649565b602082019050919050565b600060208201905081810360008301526126ae81612672565b9050919050565b60006040820190506126ca6000830185611bb0565b6126d76020830184611bb0565b9392505050565b7f43616d706169676e206e6f74206661696c656400000000000000000000000000600082015250565b6000612714601383611b2b565b915061271f826126de565b602082019050919050565b6000602082019050818103600083015261274381612707565b9050919050565b7f596f75206469646e277420636f6e7472696275746520746f207468697320636160008201527f6d706169676e0000000000000000000000000000000000000000000000000000602082015250565b60006127a6602683611b2b565b91506127b18261274a565b604082019050919050565b600060208201905081810360008301526127d581612799565b9050919050565b7f436f6e7472616374206973207061757365640000000000000000000000000000600082015250565b6000612812601283611b2b565b915061281d826127dc565b602082019050919050565b6000602082019050818103600083015261284181612805565b9050919050565b7f476f616c206d7573742062652067726561746572207468616e20300000000000600082015250565b600061287e601b83611b2b565b915061288982612848565b602082019050919050565b600060208201905081810360008301526128ad81612871565b9050919050565b7f4475726174696f6e206d7573742062652067726561746572207468616e203000600082015250565b60006128ea601f83611b2b565b91506128f5826128b4565b602082019050919050565b60006020820190508181036000830152612919816128dd565b9050919050565b60008190508160005260206000209050919050565b60006020601f8301049050919050565b600082821b905092915050565b6000600883026129827fffffffffffffffffffffffffffffffffffffffffffffffffffffffffffffffff82612945565b61298c8683612945565b95508019841693508086168417925050509392505050565b6000819050919050565b60006129c96129c46129bf84611abd565b6129a4565b611abd565b9050919050565b6000819050919050565b6129e3836129ae565b6129f76129ef826129d0565b848454612952565b825550505050565b600090565b612a0c6129ff565b612a178184846129da565b505050565b5b81811015612a3b57612a30600082612a04565b600181019050612a1d565b5050565b601f821115612a8057612a5181612920565b612a5a84612935565b81016020851015612a69578190505b612a7d612a7585612935565b830182612a1c565b50505b505050565b600082821c905092915050565b6000612aa360001984600802612a85565b1980831691505092915050565b6000612abc8383612a92565b9150826002028217905092915050565b612ad582611b20565b67ffffffffffffffff811115612aee57612aed611fa2565b5b612af882546125ac565b612b03828285612a3f565b600060209050601f831160018114612b365760008415612b24578287015190505b612b2e8582612ab0565b865550612b96565b601f198416612b4486612920565b60005b82811015612b6c57848901518255600182019150602085019450602081019050612b47565b86831015612b895784890151612b85601f891682612a92565b8355505b6001600288020188555050505b505050505050565b600060a082019050612bb36000830188611bb0565b612bc060208301876121ac565b8181036040830152612bd28186611b77565b9050612be16060830185611bb0565b612bee6080830184611bb0565b9695505050505050565b7f43616d706169676e206973206e6f742061637469766500000000000000000000600082015250565b6000612c2e601683611b2b565b9150612c3982612bf8565b602082019050919050565b60006020820190508181036000830152612c5d81612c21565b9050919050565b7f43616d706169676e20646561646c696e65207061737365640000000000000000600082015250565b6000612c9a601883611b2b565b9150612ca582612c64565b602082019050919050565b60006020820190508181036000830152612cc981612c8d565b9050919050565b7f4d696e696d756d20636f6e747269627574696f6e20697320302e303120455448600082015250565b6000612d06602083611b2b565b9150612d1182612cd0565b602082019050919050565b60006020820190508181036000830152612d3581612cf9565b9050919050565b7f4f6e6c792061646d696e2063616e2063616c6c20746869732066756e6374696f60008201527f6e00000000000000000000000000000000000000000000000000000000000000602082015250565b6000612d98602183611b2b565b9150612da382612d3c565b604082019050919050565b60006020820190508181036000830152612dc781612d8b565b905091905056fea2646970667358221220876abb6007417d0cdd37b5cfc7a2ef3cf92a3fe2f19a4c9f2a56360926ca08df64736f6c63430008130033",
  "immutableReferences": {},
  "source": "// SPDX-License-Identifier: MIT\r\npragma solidity ^0.8.19;\r\n\r\ncontract Crowdfunding {\r\n    address public admin;\r\n    uint256 public campaignCount;\r\n    bool public paused;\r\n\r\n    enum CampaignState { Active, Successful, Failed }\r\n\r\n    struct Campaign {\r\n        string name;\r\n        string description;\r\n        uint256 goal;\r\n        uint256 deadline;\r\n        address payable owner;\r\n        CampaignState state;\r\n        uint256 balance;\r\n    }\r\n\r\n    struct Backer {\r\n        uint256 amountContributed;\r\n    }\r\n\r\n    mapping(uint256 => Campaign) public campaigns;\r\n    mapping(uint256 => mapping(address => Backer)) public campaignBackers;\r\n    mapping(uint256 => address[]) private campaignContributors;\r\n    mapping(address => uint256[]) public userCampaigns;\r\n\r\n    event CampaignCreated(uint256 campaignId, address owner, string name, uint256 goal, uint256 deadline);\r\n    event ContributionReceived(uint256 campaignId, address contributor, uint256 amount);\r\n    event CampaignSuccessful(uint256 campaignId);\r\n    event CampaignFailed(uint256 campaignId);\r\n    event FundsWithdrawn(uint256 campaignId, uint256 amount);\r\n    event RefundIssued(uint256 campaignId, address backer, uint256 amount);\r\n    event CampaignPaused(bool isPaused);\r\n\r\n    modifier onlyAdmin() {\r\n        require(msg.sender == admin, \"Only admin can call this function\");\r\n        _;\r\n    }\r\n\r\n    modifier onlyOwner(uint256 _campaignId) {\r\n        require(msg.sender == campaigns[_campaignId].owner, \"Not the campaign owner\");\r\n        _;\r\n    }\r\n\r\n    modifier campaignActive(uint256 _campaignId) {\r\n        require(campaigns[_campaignId].state == CampaignState.Active, \"Campaign is not active\");\r\n        require(block.timestamp < campaigns[_campaignId].deadline, \"Campaign deadline passed\");\r\n        _;\r\n    }\r\n\r\n    modifier contractNotPaused() {\r\n        require(!paused, \"Contract is paused\");\r\n        _;\r\n    }\r\n\r\n    constructor() {\r\n        admin = msg.sender;\r\n        paused = false;\r\n    }\r\n\r\n    function createCampaign(\r\n        string memory _name,\r\n        string memory _description,\r\n        uint256 _goal,\r\n        uint256 _duration\r\n    ) external contractNotPaused {\r\n        require(_goal > 0, \"Goal must be greater than 0\");\r\n        require(_duration > 0, \"Duration must be greater than 0\");\r\n\r\n        uint256 campaignId = campaignCount++;\r\n\r\n        // For testing: use a very short deadline (25 seconds)\r\n        uint256 deadline = block.timestamp + 25;\r\n\r\n        campaigns[campaignId] = Campaign({\r\n            name: _name,\r\n            description: _description,\r\n            goal: _goal,\r\n            deadline: deadline,\r\n            owner: payable(msg.sender),\r\n            state: CampaignState.Active,\r\n            balance: 0\r\n        });\r\n\r\n        userCampaigns[msg.sender].push(campaignId);\r\n\r\n        emit CampaignCreated(campaignId, msg.sender, _name, _goal, deadline);\r\n    }\r\n\r\n    function contribute(uint256 _campaignId)\r\n        external\r\n        payable\r\n        campaignActive(_campaignId)\r\n        contractNotPaused\r\n    {\r\n        require(msg.value >= 0.01 ether, \"Minimum contribution is 0.01 ETH\");\r\n\r\n        Campaign storage campaign = campaigns[_campaignId];\r\n\r\n        if (campaignBackers[_campaignId][msg.sender].amountContributed == 0) {\r\n            campaignContributors[_campaignId].push(msg.sender);\r\n        }\r\n\r\n        campaignBackers[_campaignId][msg.sender].amountContributed += msg.value;\r\n        campaign.balance += msg.value;\r\n\r\n        if (campaign.balance >= campaign.goal) {\r\n            campaign.state = CampaignState.Successful;\r\n            emit CampaignSuccessful(_campaignId);\r\n        }\r\n\r\n        emit ContributionReceived(_campaignId, msg.sender, msg.value);\r\n    }\r\n\r\n    function withdrawFunds(uint256 _campaignId) external onlyOwner(_campaignId) {\r\n        Campaign storage campaign = campaigns[_campaignId];\r\n\r\n        require(campaign.state == CampaignState.Successful, \"Campaign is not successful\");\r\n        require(campaign.balance > 0, \"No funds to withdraw\");\r\n        // require(block.timestamp > campaign.deadline, \"Cannot withdraw before deadline\");\r\n\r\n        uint256 amount = campaign.balance;\r\n        campaign.balance = 0;\r\n\r\n        (bool success, ) = campaign.owner.call{value: amount}(\"\");\r\n        require(success, \"Transfer failed\");\r\n\r\n        emit FundsWithdrawn(_campaignId, amount);\r\n    }\r\n\r\n    function refundBackers(uint256 _campaignId) external {\r\n        Campaign storage campaign = campaigns[_campaignId];\r\n        require(campaign.state == CampaignState.Failed, \"Campaign not failed\");\r\n        require(block.timestamp > campaign.deadline, \"Campaign deadline not passed\");\r\n        require(campaign.balance > 0, \"No funds available for refund\");\r\n\r\n        uint256 amount = campaignBackers[_campaignId][msg.sender].amountContributed;\r\n        require(amount > 0, \"You didn't contribute to this campaign\");\r\n        require(amount <= campaign.balance, \"Insufficient contract balance\");\r\n\r\n        // Update state before transfer\r\n        campaignBackers[_campaignId][msg.sender].amountContributed = 0;\r\n        campaign.balance -= amount;\r\n\r\n        // Transfer after state updates\r\n        (bool success, ) = payable(msg.sender).call{value: amount}(\"\");\r\n        require(success, \"Transfer failed\");\r\n\r\n        emit RefundIssued(_campaignId, msg.sender, amount);\r\n    }\r\n\r\n    function autoRefund(uint256 _campaignId) external {\r\n        Campaign storage campaign = campaigns[_campaignId];\r\n\r\n        require(block.timestamp > campaign.deadline, \"Campaign deadline not passed\");\r\n        require(campaign.state == CampaignState.Successful, \"Campaign is not successful\");\r\n        require(campaign.balance > 0, \"No funds available for refund\");\r\n\r\n        campaign.state = CampaignState.Failed;\r\n        uint256 totalRefundAmount = 0;\r\n\r\n        // First pass: calculate total refund amount\r\n        for (uint256 i = 0; i < campaignContributors[_campaignId].length; i++) {\r\n            address backer = campaignContributors[_campaignId][i];\r\n            uint256 amount = campaignBackers[_campaignId][backer].amountContributed;\r\n            if (amount > 0) {\r\n                totalRefundAmount += amount;\r\n            }\r\n        }\r\n\r\n        require(totalRefundAmount <= campaign.balance, \"Insufficient contract balance\");\r\n\r\n        // Second pass: process refunds\r\n        for (uint256 i = 0; i < campaignContributors[_campaignId].length; i++) {\r\n            address backer = campaignContributors[_campaignId][i];\r\n            uint256 amount = campaignBackers[_campaignId][backer].amountContributed;\r\n\r\n            if (amount > 0) {\r\n                // Update state before transfer\r\n                campaignBackers[_campaignId][backer] = Backer(0);\r\n                campaign.balance -= amount;\r\n\r\n                // Transfer after state updates\r\n                (bool success, ) = payable(backer).call{value: amount}(\"\");\r\n                require(success, \"Transfer failed\");\r\n\r\n                emit RefundIssued(_campaignId, backer, amount);\r\n            }\r\n        }\r\n\r\n        emit CampaignFailed(_campaignId);\r\n    }\r\n\r\n    function getContributors(uint256 _campaignId) external view returns (address[] memory, uint256[] memory) {\r\n        uint256 length = campaignContributors[_campaignId].length;\r\n        address[] memory contributors = new address[](length);\r\n        uint256[] memory amounts = new uint256[](length);\r\n\r\n        for (uint256 i = 0; i < length; i++) {\r\n            address contributor = campaignContributors[_campaignId][i];\r\n            contributors[i] = contributor;\r\n            amounts[i] = campaignBackers[_campaignId][contributor].amountContributed;\r\n        }\r\n\r\n        return (contributors, amounts);\r\n    }\r\n\r\n    function togglePause() external onlyAdmin {\r\n        paused = !paused;\r\n        emit CampaignPaused(paused);\r\n    }\r\n\r\n    function getMyCampaigns() external view returns (uint256[] memory) {\r\n        return userCampaigns[msg.sender];\r\n    }\r\n}\r\n",
  "sourcePath": "C:\\Users\\omcha\\Desktop\\mini_project_gg\\pushingg\\MINI_6\\blockchain-crowdfunding\\contracts\\Crowdfunding.sol",
  "compiler": {
    "name": "solc",
    "version": "0.8.19+commit.7dd6d404.Emscripten.clang"
  },
  "schemaVersion": "3.4.16",
  "updatedAt": "2025-04-18T15:45:47.968Z",
  "networkType": "ethereum",
  "devdoc": {
    "kind": "dev",
    "methods": {},
    "version": 1
  },
  "userdoc": {
    "kind": "user",
    "methods": {},
    "version": 1
  }
}